{
  "_format": "hh-sol-artifact-1",
  "contractName": "DigitalCertificate",
  "sourceName": "contracts/DigitalCertificate.sol",
  "abi": [
    {
      "inputs": [],
      "stateMutability": "nonpayable",
      "type": "constructor"
    },
    {
      "inputs": [],
      "name": "ERC721EnumerableForbiddenBatchMint",
      "type": "error"
    },
    {
      "inputs": [
        {
          "internalType": "address",
          "name": "sender",
          "type": "address"
        },
        {
          "internalType": "uint256",
          "name": "tokenId",
          "type": "uint256"
        },
        {
          "internalType": "address",
          "name": "owner",
          "type": "address"
        }
      ],
      "name": "ERC721IncorrectOwner",
      "type": "error"
    },
    {
      "inputs": [
        {
          "internalType": "address",
          "name": "operator",
          "type": "address"
        },
        {
          "internalType": "uint256",
          "name": "tokenId",
          "type": "uint256"
        }
      ],
      "name": "ERC721InsufficientApproval",
      "type": "error"
    },
    {
      "inputs": [
        {
          "internalType": "address",
          "name": "approver",
          "type": "address"
        }
      ],
      "name": "ERC721InvalidApprover",
      "type": "error"
    },
    {
      "inputs": [
        {
          "internalType": "address",
          "name": "operator",
          "type": "address"
        }
      ],
      "name": "ERC721InvalidOperator",
      "type": "error"
    },
    {
      "inputs": [
        {
          "internalType": "address",
          "name": "owner",
          "type": "address"
        }
      ],
      "name": "ERC721InvalidOwner",
      "type": "error"
    },
    {
      "inputs": [
        {
          "internalType": "address",
          "name": "receiver",
          "type": "address"
        }
      ],
      "name": "ERC721InvalidReceiver",
      "type": "error"
    },
    {
      "inputs": [
        {
          "internalType": "address",
          "name": "sender",
          "type": "address"
        }
      ],
      "name": "ERC721InvalidSender",
      "type": "error"
    },
    {
      "inputs": [
        {
          "internalType": "uint256",
          "name": "tokenId",
          "type": "uint256"
        }
      ],
      "name": "ERC721NonexistentToken",
      "type": "error"
    },
    {
      "inputs": [
        {
          "internalType": "address",
          "name": "owner",
          "type": "address"
        },
        {
          "internalType": "uint256",
          "name": "index",
          "type": "uint256"
        }
      ],
      "name": "ERC721OutOfBoundsIndex",
      "type": "error"
    },
    {
      "inputs": [
        {
          "internalType": "address",
          "name": "owner",
          "type": "address"
        }
      ],
      "name": "OwnableInvalidOwner",
      "type": "error"
    },
    {
      "inputs": [
        {
          "internalType": "address",
          "name": "account",
          "type": "address"
        }
      ],
      "name": "OwnableUnauthorizedAccount",
      "type": "error"
    },
    {
      "anonymous": false,
      "inputs": [
        {
          "indexed": true,
          "internalType": "address",
          "name": "owner",
          "type": "address"
        },
        {
          "indexed": true,
          "internalType": "address",
          "name": "approved",
          "type": "address"
        },
        {
          "indexed": true,
          "internalType": "uint256",
          "name": "tokenId",
          "type": "uint256"
        }
      ],
      "name": "Approval",
      "type": "event"
    },
    {
      "anonymous": false,
      "inputs": [
        {
          "indexed": true,
          "internalType": "address",
          "name": "owner",
          "type": "address"
        },
        {
          "indexed": true,
          "internalType": "address",
          "name": "operator",
          "type": "address"
        },
        {
          "indexed": false,
          "internalType": "bool",
          "name": "approved",
          "type": "bool"
        }
      ],
      "name": "ApprovalForAll",
      "type": "event"
    },
    {
      "anonymous": false,
      "inputs": [
        {
          "indexed": false,
          "internalType": "uint256",
          "name": "_fromTokenId",
          "type": "uint256"
        },
        {
          "indexed": false,
          "internalType": "uint256",
          "name": "_toTokenId",
          "type": "uint256"
        }
      ],
      "name": "BatchMetadataUpdate",
      "type": "event"
    },
    {
      "anonymous": false,
      "inputs": [
        {
          "indexed": false,
          "internalType": "uint256",
          "name": "_tokenId",
          "type": "uint256"
        }
      ],
      "name": "MetadataUpdate",
      "type": "event"
    },
    {
      "anonymous": false,
      "inputs": [
        {
          "indexed": true,
          "internalType": "address",
          "name": "previousOwner",
          "type": "address"
        },
        {
          "indexed": true,
          "internalType": "address",
          "name": "newOwner",
          "type": "address"
        }
      ],
      "name": "OwnershipTransferred",
      "type": "event"
    },
    {
      "anonymous": false,
      "inputs": [
        {
          "indexed": true,
          "internalType": "address",
          "name": "from",
          "type": "address"
        },
        {
          "indexed": true,
          "internalType": "address",
          "name": "to",
          "type": "address"
        },
        {
          "indexed": true,
          "internalType": "uint256",
          "name": "tokenId",
          "type": "uint256"
        }
      ],
      "name": "Transfer",
      "type": "event"
    },
    {
      "inputs": [
        {
          "internalType": "address",
          "name": "to",
          "type": "address"
        },
        {
          "internalType": "uint256",
          "name": "tokenId",
          "type": "uint256"
        }
      ],
      "name": "approve",
      "outputs": [],
      "stateMutability": "nonpayable",
      "type": "function"
    },
    {
      "inputs": [
        {
          "internalType": "address",
          "name": "owner",
          "type": "address"
        }
      ],
      "name": "balanceOf",
      "outputs": [
        {
          "internalType": "uint256",
          "name": "",
          "type": "uint256"
        }
      ],
      "stateMutability": "view",
      "type": "function"
    },
    {
      "inputs": [
        {
          "internalType": "uint256",
          "name": "tokenId",
          "type": "uint256"
        }
      ],
      "name": "getApproved",
      "outputs": [
        {
          "internalType": "address",
          "name": "",
          "type": "address"
        }
      ],
      "stateMutability": "view",
      "type": "function"
    },
    {
      "inputs": [
        {
          "internalType": "address",
          "name": "owner",
          "type": "address"
        },
        {
          "internalType": "address",
          "name": "operator",
          "type": "address"
        }
      ],
      "name": "isApprovedForAll",
      "outputs": [
        {
          "internalType": "bool",
          "name": "",
          "type": "bool"
        }
      ],
      "stateMutability": "view",
      "type": "function"
    },
    {
      "inputs": [
        {
          "internalType": "address",
          "name": "student",
          "type": "address"
        },
        {
          "internalType": "string",
          "name": "tokenURI",
          "type": "string"
        }
      ],
      "name": "issueCertificate",
      "outputs": [
        {
          "internalType": "uint256",
          "name": "",
          "type": "uint256"
        }
      ],
      "stateMutability": "nonpayable",
      "type": "function"
    },
    {
      "inputs": [],
      "name": "name",
      "outputs": [
        {
          "internalType": "string",
          "name": "",
          "type": "string"
        }
      ],
      "stateMutability": "view",
      "type": "function"
    },
    {
      "inputs": [],
      "name": "owner",
      "outputs": [
        {
          "internalType": "address",
          "name": "",
          "type": "address"
        }
      ],
      "stateMutability": "view",
      "type": "function"
    },
    {
      "inputs": [
        {
          "internalType": "uint256",
          "name": "tokenId",
          "type": "uint256"
        }
      ],
      "name": "ownerOf",
      "outputs": [
        {
          "internalType": "address",
          "name": "",
          "type": "address"
        }
      ],
      "stateMutability": "view",
      "type": "function"
    },
    {
      "inputs": [],
      "name": "renounceOwnership",
      "outputs": [],
      "stateMutability": "nonpayable",
      "type": "function"
    },
    {
      "inputs": [
        {
          "internalType": "address",
          "name": "from",
          "type": "address"
        },
        {
          "internalType": "address",
          "name": "to",
          "type": "address"
        },
        {
          "internalType": "uint256",
          "name": "tokenId",
          "type": "uint256"
        }
      ],
      "name": "safeTransferFrom",
      "outputs": [],
      "stateMutability": "nonpayable",
      "type": "function"
    },
    {
      "inputs": [
        {
          "internalType": "address",
          "name": "from",
          "type": "address"
        },
        {
          "internalType": "address",
          "name": "to",
          "type": "address"
        },
        {
          "internalType": "uint256",
          "name": "tokenId",
          "type": "uint256"
        },
        {
          "internalType": "bytes",
          "name": "data",
          "type": "bytes"
        }
      ],
      "name": "safeTransferFrom",
      "outputs": [],
      "stateMutability": "nonpayable",
      "type": "function"
    },
    {
      "inputs": [
        {
          "internalType": "address",
          "name": "operator",
          "type": "address"
        },
        {
          "internalType": "bool",
          "name": "approved",
          "type": "bool"
        }
      ],
      "name": "setApprovalForAll",
      "outputs": [],
      "stateMutability": "nonpayable",
      "type": "function"
    },
    {
      "inputs": [
        {
          "internalType": "bytes4",
          "name": "interfaceId",
          "type": "bytes4"
        }
      ],
      "name": "supportsInterface",
      "outputs": [
        {
          "internalType": "bool",
          "name": "",
          "type": "bool"
        }
      ],
      "stateMutability": "view",
      "type": "function"
    },
    {
      "inputs": [],
      "name": "symbol",
      "outputs": [
        {
          "internalType": "string",
          "name": "",
          "type": "string"
        }
      ],
      "stateMutability": "view",
      "type": "function"
    },
    {
      "inputs": [
        {
          "internalType": "uint256",
          "name": "index",
          "type": "uint256"
        }
      ],
      "name": "tokenByIndex",
      "outputs": [
        {
          "internalType": "uint256",
          "name": "",
          "type": "uint256"
        }
      ],
      "stateMutability": "view",
      "type": "function"
    },
    {
      "inputs": [
        {
          "internalType": "address",
          "name": "owner",
          "type": "address"
        },
        {
          "internalType": "uint256",
          "name": "index",
          "type": "uint256"
        }
      ],
      "name": "tokenOfOwnerByIndex",
      "outputs": [
        {
          "internalType": "uint256",
          "name": "",
          "type": "uint256"
        }
      ],
      "stateMutability": "view",
      "type": "function"
    },
    {
      "inputs": [
        {
          "internalType": "uint256",
          "name": "tokenId",
          "type": "uint256"
        }
      ],
      "name": "tokenURI",
      "outputs": [
        {
          "internalType": "string",
          "name": "",
          "type": "string"
        }
      ],
      "stateMutability": "view",
      "type": "function"
    },
    {
      "inputs": [],
      "name": "totalSupply",
      "outputs": [
        {
          "internalType": "uint256",
          "name": "",
          "type": "uint256"
        }
      ],
      "stateMutability": "view",
      "type": "function"
    },
    {
      "inputs": [
        {
          "internalType": "address",
          "name": "from",
          "type": "address"
        },
        {
          "internalType": "address",
          "name": "to",
          "type": "address"
        },
        {
          "internalType": "uint256",
          "name": "tokenId",
          "type": "uint256"
        }
      ],
      "name": "transferFrom",
      "outputs": [],
      "stateMutability": "nonpayable",
      "type": "function"
    },
    {
      "inputs": [
        {
          "internalType": "address",
          "name": "newOwner",
          "type": "address"
        }
      ],
      "name": "transferOwnership",
      "outputs": [],
      "stateMutability": "nonpayable",
      "type": "function"
    }
  ],
  "bytecode": "0x608060405234801561001057600080fd5b50336040518060400160405280601381526020017f4469676974616c204365727469666963617465000000000000000000000000008152506040518060400160405280600381526020017f4443430000000000000000000000000000000000000000000000000000000000815250816000908161008d919061043d565b50806001908161009d919061043d565b505050600073ffffffffffffffffffffffffffffffffffffffff168173ffffffffffffffffffffffffffffffffffffffff16036101125760006040517f1e4fbdf70000000000000000000000000000000000000000000000000000000081526004016101099190610550565b60405180910390fd5b6101218161012760201b60201c565b5061056b565b6000600660009054906101000a900473ffffffffffffffffffffffffffffffffffffffff16905081600660006101000a81548173ffffffffffffffffffffffffffffffffffffffff021916908373ffffffffffffffffffffffffffffffffffffffff1602179055508173ffffffffffffffffffffffffffffffffffffffff168173ffffffffffffffffffffffffffffffffffffffff167f8be0079c531659141344cd1fd0a4f28419497f9722a3daafe3b4186f6b6457e060405160405180910390a35050565b600081519050919050565b7f4e487b7100000000000000000000000000000000000000000000000000000000600052604160045260246000fd5b7f4e487b7100000000000000000000000000000000000000000000000000000000600052602260045260246000fd5b6000600282049050600182168061026e57607f821691505b60208210810361028157610280610227565b5b50919050565b60008190508160005260206000209050919050565b60006020601f8301049050919050565b600082821b905092915050565b6000600883026102e97fffffffffffffffffffffffffffffffffffffffffffffffffffffffffffffffff826102ac565b6102f386836102ac565b95508019841693508086168417925050509392505050565b6000819050919050565b6000819050919050565b600061033a6103356103308461030b565b610315565b61030b565b9050919050565b6000819050919050565b6103548361031f565b61036861036082610341565b8484546102b9565b825550505050565b600090565b61037d610370565b61038881848461034b565b505050565b5b818110156103ac576103a1600082610375565b60018101905061038e565b5050565b601f8211156103f1576103c281610287565b6103cb8461029c565b810160208510156103da578190505b6103ee6103e68561029c565b83018261038d565b50505b505050565b600082821c905092915050565b6000610414600019846008026103f6565b1980831691505092915050565b600061042d8383610403565b9150826002028217905092915050565b610446826101ed565b67ffffffffffffffff81111561045f5761045e6101f8565b5b6104698254610256565b6104748282856103b0565b600060209050601f8311600181146104a75760008415610495578287015190505b61049f8582610421565b865550610507565b601f1984166104b586610287565b60005b828110156104dd578489015182556001820191506020850194506020810190506104b8565b868310156104fa57848901516104f6601f891682610403565b8355505b6001600288020188555050505b505050505050565b600073ffffffffffffffffffffffffffffffffffffffff82169050919050565b600061053a8261050f565b9050919050565b61054a8161052f565b82525050565b60006020820190506105656000830184610541565b92915050565b612d418061057a6000396000f3fe608060405234801561001057600080fd5b506004361061012c5760003560e01c806370a08231116100ad578063b88d4fde11610071578063b88d4fde14610343578063bb721aab1461035f578063c87b56dd1461038f578063e985e9c5146103bf578063f2fde38b146103ef5761012c565b806370a08231146102b1578063715018a6146102e15780638da5cb5b146102eb57806395d89b4114610309578063a22cb465146103275761012c565b806323b872dd116100f457806323b872dd146101e95780632f745c591461020557806342842e0e146102355780634f6ccce7146102515780636352211e146102815761012c565b806301ffc9a71461013157806306fdde0314610161578063081812fc1461017f578063095ea7b3146101af57806318160ddd146101cb575b600080fd5b61014b60048036038101906101469190612107565b61040b565b604051610158919061214f565b60405180910390f35b61016961041d565b60405161017691906121fa565b60405180910390f35b61019960048036038101906101949190612252565b6104af565b6040516101a691906122c0565b60405180910390f35b6101c960048036038101906101c49190612307565b6104cb565b005b6101d36104e1565b6040516101e09190612356565b60405180910390f35b61020360048036038101906101fe9190612371565b6104ee565b005b61021f600480360381019061021a9190612307565b6105f0565b60405161022c9190612356565b60405180910390f35b61024f600480360381019061024a9190612371565b610699565b005b61026b60048036038101906102669190612252565b6106b9565b6040516102789190612356565b60405180910390f35b61029b60048036038101906102969190612252565b61072f565b6040516102a891906122c0565b60405180910390f35b6102cb60048036038101906102c691906123c4565b610741565b6040516102d89190612356565b60405180910390f35b6102e96107fb565b005b6102f361080f565b60405161030091906122c0565b60405180910390f35b610311610839565b60405161031e91906121fa565b60405180910390f35b610341600480360381019061033c919061241d565b6108cb565b005b61035d60048036038101906103589190612592565b6108e1565b005b610379600480360381019061037491906126b6565b610906565b6040516103869190612356565b60405180910390f35b6103a960048036038101906103a49190612252565b61094d565b6040516103b691906121fa565b60405180910390f35b6103d960048036038101906103d49190612712565b61095f565b6040516103e6919061214f565b60405180910390f35b610409600480360381019061040491906123c4565b6109f3565b005b600061041682610a79565b9050919050565b60606000805461042c90612781565b80601f016020809104026020016040519081016040528092919081815260200182805461045890612781565b80156104a55780601f1061047a576101008083540402835291602001916104a5565b820191906000526020600020905b81548152906001019060200180831161048857829003601f168201915b5050505050905090565b60006104ba82610af3565b506104c482610b7b565b9050919050565b6104dd82826104d8610bb8565b610bc0565b5050565b6000600a80549050905090565b600073ffffffffffffffffffffffffffffffffffffffff168273ffffffffffffffffffffffffffffffffffffffff16036105605760006040517f64a0ae9200000000000000000000000000000000000000000000000000000000815260040161055791906122c0565b60405180910390fd5b6000610574838361056f610bb8565b610bd2565b90508373ffffffffffffffffffffffffffffffffffffffff168173ffffffffffffffffffffffffffffffffffffffff16146105ea578382826040517f64283d7b0000000000000000000000000000000000000000000000000000000081526004016105e1939291906127b2565b60405180910390fd5b50505050565b60006105fb83610741565b82106106405782826040517fa57d13dc0000000000000000000000000000000000000000000000000000000081526004016106379291906127e9565b60405180910390fd5b600860008473ffffffffffffffffffffffffffffffffffffffff1673ffffffffffffffffffffffffffffffffffffffff168152602001908152602001600020600083815260200190815260200160002054905092915050565b6106b4838383604051806020016040528060008152506108e1565b505050565b60006106c36104e1565b8210610709576000826040517fa57d13dc0000000000000000000000000000000000000000000000000000000081526004016107009291906127e9565b60405180910390fd5b600a828154811061071d5761071c612812565b5b90600052602060002001549050919050565b600061073a82610af3565b9050919050565b60008073ffffffffffffffffffffffffffffffffffffffff168273ffffffffffffffffffffffffffffffffffffffff16036107b45760006040517f89c62b640000000000000000000000000000000000000000000000000000000081526004016107ab91906122c0565b60405180910390fd5b600360008373ffffffffffffffffffffffffffffffffffffffff1673ffffffffffffffffffffffffffffffffffffffff168152602001908152602001600020549050919050565b610803610be8565b61080d6000610c6f565b565b6000600660009054906101000a900473ffffffffffffffffffffffffffffffffffffffff16905090565b60606001805461084890612781565b80601f016020809104026020016040519081016040528092919081815260200182805461087490612781565b80156108c15780601f10610896576101008083540402835291602001916108c1565b820191906000526020600020905b8154815290600101906020018083116108a457829003601f168201915b5050505050905090565b6108dd6108d6610bb8565b8383610d35565b5050565b6108ec8484846104ee565b6109006108f7610bb8565b85858585610ea4565b50505050565b6000610910610be8565b600c600081548092919061092390612870565b91905055506000600c5490506109398482611055565b6109438184611073565b8091505092915050565b6060610958826110cf565b9050919050565b6000600560008473ffffffffffffffffffffffffffffffffffffffff1673ffffffffffffffffffffffffffffffffffffffff16815260200190815260200160002060008373ffffffffffffffffffffffffffffffffffffffff1673ffffffffffffffffffffffffffffffffffffffff16815260200190815260200160002060009054906101000a900460ff16905092915050565b6109fb610be8565b600073ffffffffffffffffffffffffffffffffffffffff168173ffffffffffffffffffffffffffffffffffffffff1603610a6d5760006040517f1e4fbdf7000000000000000000000000000000000000000000000000000000008152600401610a6491906122c0565b60405180910390fd5b610a7681610c6f565b50565b60007f780e9d63000000000000000000000000000000000000000000000000000000007bffffffffffffffffffffffffffffffffffffffffffffffffffffffff1916827bffffffffffffffffffffffffffffffffffffffffffffffffffffffff19161480610aec5750610aeb826111e2565b5b9050919050565b600080610aff83611243565b9050600073ffffffffffffffffffffffffffffffffffffffff168173ffffffffffffffffffffffffffffffffffffffff1603610b7257826040517f7e273289000000000000000000000000000000000000000000000000000000008152600401610b699190612356565b60405180910390fd5b80915050919050565b60006004600083815260200190815260200160002060009054906101000a900473ffffffffffffffffffffffffffffffffffffffff169050919050565b600033905090565b610bcd8383836001611280565b505050565b6000610bdf848484611445565b90509392505050565b610bf0610bb8565b73ffffffffffffffffffffffffffffffffffffffff16610c0e61080f565b73ffffffffffffffffffffffffffffffffffffffff1614610c6d57610c31610bb8565b6040517f118cdaa7000000000000000000000000000000000000000000000000000000008152600401610c6491906122c0565b60405180910390fd5b565b6000600660009054906101000a900473ffffffffffffffffffffffffffffffffffffffff16905081600660006101000a81548173ffffffffffffffffffffffffffffffffffffffff021916908373ffffffffffffffffffffffffffffffffffffffff1602179055508173ffffffffffffffffffffffffffffffffffffffff168173ffffffffffffffffffffffffffffffffffffffff167f8be0079c531659141344cd1fd0a4f28419497f9722a3daafe3b4186f6b6457e060405160405180910390a35050565b600073ffffffffffffffffffffffffffffffffffffffff168273ffffffffffffffffffffffffffffffffffffffff1603610da657816040517f5b08ba18000000000000000000000000000000000000000000000000000000008152600401610d9d91906122c0565b60405180910390fd5b80600560008573ffffffffffffffffffffffffffffffffffffffff1673ffffffffffffffffffffffffffffffffffffffff16815260200190815260200160002060008473ffffffffffffffffffffffffffffffffffffffff1673ffffffffffffffffffffffffffffffffffffffff16815260200190815260200160002060006101000a81548160ff0219169083151502179055508173ffffffffffffffffffffffffffffffffffffffff168373ffffffffffffffffffffffffffffffffffffffff167f17307eab39ab6107e8899845ad3d59bd9653f200f220920489ca2b5937696c3183604051610e97919061214f565b60405180910390a3505050565b60008373ffffffffffffffffffffffffffffffffffffffff163b111561104e578273ffffffffffffffffffffffffffffffffffffffff1663150b7a02868685856040518563ffffffff1660e01b8152600401610f03949392919061290d565b6020604051808303816000875af1925050508015610f3f57506040513d601f19601f82011682018060405250810190610f3c919061296e565b60015b610fc3573d8060008114610f6f576040519150601f19603f3d011682016040523d82523d6000602084013e610f74565b606091505b506000815103610fbb57836040517f64a0ae92000000000000000000000000000000000000000000000000000000008152600401610fb291906122c0565b60405180910390fd5b805160208201fd5b63150b7a0260e01b7bffffffffffffffffffffffffffffffffffffffffffffffffffffffff1916817bffffffffffffffffffffffffffffffffffffffffffffffffffffffff19161461104c57836040517f64a0ae9200000000000000000000000000000000000000000000000000000000815260040161104391906122c0565b60405180910390fd5b505b5050505050565b61106f828260405180602001604052806000815250611562565b5050565b806007600084815260200190815260200160002090816110939190612b47565b507ff8e1a15aba9398e019f0b49df1a4fde98ee17ae345cb5f6b5e2c27f5033e8ce7826040516110c39190612356565b60405180910390a15050565b60606110da82610af3565b5060006007600084815260200190815260200160002080546110fb90612781565b80601f016020809104026020016040519081016040528092919081815260200182805461112790612781565b80156111745780601f1061114957610100808354040283529160200191611174565b820191906000526020600020905b81548152906001019060200180831161115757829003601f168201915b505050505090506000611185611586565b9050600081510361119a5781925050506111dd565b6000825111156111cf5780826040516020016111b7929190612c55565b604051602081830303815290604052925050506111dd565b6111d88461159d565b925050505b919050565b6000634906490660e01b7bffffffffffffffffffffffffffffffffffffffffffffffffffffffff1916827bffffffffffffffffffffffffffffffffffffffffffffffffffffffff1916148061123c575061123b82611606565b5b9050919050565b60006002600083815260200190815260200160002060009054906101000a900473ffffffffffffffffffffffffffffffffffffffff169050919050565b80806112b95750600073ffffffffffffffffffffffffffffffffffffffff168273ffffffffffffffffffffffffffffffffffffffff1614155b156113ed5760006112c984610af3565b9050600073ffffffffffffffffffffffffffffffffffffffff168373ffffffffffffffffffffffffffffffffffffffff161415801561133457508273ffffffffffffffffffffffffffffffffffffffff168173ffffffffffffffffffffffffffffffffffffffff1614155b80156113475750611345818461095f565b155b1561138957826040517fa9fbf51f00000000000000000000000000000000000000000000000000000000815260040161138091906122c0565b60405180910390fd5b81156113eb57838573ffffffffffffffffffffffffffffffffffffffff168273ffffffffffffffffffffffffffffffffffffffff167f8c5be1e5ebec7d5bd14f71427d1e84f3dd0314c0f7b2291e5b200ac8c7c3b92560405160405180910390a45b505b836004600085815260200190815260200160002060006101000a81548173ffffffffffffffffffffffffffffffffffffffff021916908373ffffffffffffffffffffffffffffffffffffffff16021790555050505050565b6000806114538585856116e8565b9050600073ffffffffffffffffffffffffffffffffffffffff168173ffffffffffffffffffffffffffffffffffffffff16036114975761149284611902565b6114d6565b8473ffffffffffffffffffffffffffffffffffffffff168173ffffffffffffffffffffffffffffffffffffffff16146114d5576114d4818561194b565b5b5b600073ffffffffffffffffffffffffffffffffffffffff168573ffffffffffffffffffffffffffffffffffffffff16036115185761151384611a36565b611557565b8473ffffffffffffffffffffffffffffffffffffffff168173ffffffffffffffffffffffffffffffffffffffff1614611556576115558585611b07565b5b5b809150509392505050565b61156c8383611b92565b611581611577610bb8565b6000858585610ea4565b505050565b606060405180602001604052806000815250905090565b60606115a882610af3565b5060006115b3611586565b905060008151116115d357604051806020016040528060008152506115fe565b806115dd84611c8b565b6040516020016115ee929190612c55565b6040516020818303038152906040525b915050919050565b60007f80ac58cd000000000000000000000000000000000000000000000000000000007bffffffffffffffffffffffffffffffffffffffffffffffffffffffff1916827bffffffffffffffffffffffffffffffffffffffffffffffffffffffff191614806116d157507f5b5e139f000000000000000000000000000000000000000000000000000000007bffffffffffffffffffffffffffffffffffffffffffffffffffffffff1916827bffffffffffffffffffffffffffffffffffffffffffffffffffffffff1916145b806116e157506116e082611d59565b5b9050919050565b6000806116f484611243565b9050600073ffffffffffffffffffffffffffffffffffffffff168373ffffffffffffffffffffffffffffffffffffffff161461173657611735818486611dc3565b5b600073ffffffffffffffffffffffffffffffffffffffff168173ffffffffffffffffffffffffffffffffffffffff16146117c757611778600085600080611280565b6001600360008373ffffffffffffffffffffffffffffffffffffffff1673ffffffffffffffffffffffffffffffffffffffff168152602001908152602001600020600082825403925050819055505b600073ffffffffffffffffffffffffffffffffffffffff168573ffffffffffffffffffffffffffffffffffffffff161461184a576001600360008773ffffffffffffffffffffffffffffffffffffffff1673ffffffffffffffffffffffffffffffffffffffff168152602001908152602001600020600082825401925050819055505b846002600086815260200190815260200160002060006101000a81548173ffffffffffffffffffffffffffffffffffffffff021916908373ffffffffffffffffffffffffffffffffffffffff160217905550838573ffffffffffffffffffffffffffffffffffffffff168273ffffffffffffffffffffffffffffffffffffffff167fddf252ad1be2c89b69c2b068fc378daa952ba7f163c4a11628f55a4df523b3ef60405160405180910390a4809150509392505050565b600a80549050600b600083815260200190815260200160002081905550600a81908060018154018082558091505060019003906000526020600020016000909190919091505550565b600061195683610741565b90506000600960008481526020019081526020016000205490506000600860008673ffffffffffffffffffffffffffffffffffffffff1673ffffffffffffffffffffffffffffffffffffffff1681526020019081526020016000209050828214611a025760008160008581526020019081526020016000205490508082600085815260200190815260200160002081905550826009600083815260200190815260200160002081905550505b6009600085815260200190815260200160002060009055806000848152602001908152602001600020600090555050505050565b60006001600a80549050611a4a9190612c79565b90506000600b60008481526020019081526020016000205490506000600a8381548110611a7a57611a79612812565b5b9060005260206000200154905080600a8381548110611a9c57611a9b612812565b5b906000526020600020018190555081600b600083815260200190815260200160002081905550600b600085815260200190815260200160002060009055600a805480611aeb57611aea612cad565b5b6001900381819060005260206000200160009055905550505050565b60006001611b1484610741565b611b1e9190612c79565b905081600860008573ffffffffffffffffffffffffffffffffffffffff1673ffffffffffffffffffffffffffffffffffffffff168152602001908152602001600020600083815260200190815260200160002081905550806009600084815260200190815260200160002081905550505050565b600073ffffffffffffffffffffffffffffffffffffffff168273ffffffffffffffffffffffffffffffffffffffff1603611c045760006040517f64a0ae92000000000000000000000000000000000000000000000000000000008152600401611bfb91906122c0565b60405180910390fd5b6000611c1283836000610bd2565b9050600073ffffffffffffffffffffffffffffffffffffffff168173ffffffffffffffffffffffffffffffffffffffff1614611c865760006040517f73c6ac6e000000000000000000000000000000000000000000000000000000008152600401611c7d91906122c0565b60405180910390fd5b505050565b606060006001611c9a84611e87565b01905060008167ffffffffffffffff811115611cb957611cb8612467565b5b6040519080825280601f01601f191660200182016040528015611ceb5781602001600182028036833780820191505090505b509050600082602083010190505b600115611d4e578080600190039150507f3031323334353637383961626364656600000000000000000000000000000000600a86061a8153600a8581611d4257611d41612cdc565b5b04945060008503611cf9575b819350505050919050565b60007f01ffc9a7000000000000000000000000000000000000000000000000000000007bffffffffffffffffffffffffffffffffffffffffffffffffffffffff1916827bffffffffffffffffffffffffffffffffffffffffffffffffffffffff1916149050919050565b611dce838383611fda565b611e8257600073ffffffffffffffffffffffffffffffffffffffff168373ffffffffffffffffffffffffffffffffffffffff1603611e4357806040517f7e273289000000000000000000000000000000000000000000000000000000008152600401611e3a9190612356565b60405180910390fd5b81816040517f177e802f000000000000000000000000000000000000000000000000000000008152600401611e799291906127e9565b60405180910390fd5b505050565b600080600090507a184f03e93ff9f4daa797ed6e38ed64bf6a1f0100000000000000008310611ee5577a184f03e93ff9f4daa797ed6e38ed64bf6a1f0100000000000000008381611edb57611eda612cdc565b5b0492506040810190505b6d04ee2d6d415b85acef81000000008310611f22576d04ee2d6d415b85acef81000000008381611f1857611f17612cdc565b5b0492506020810190505b662386f26fc100008310611f5157662386f26fc100008381611f4757611f46612cdc565b5b0492506010810190505b6305f5e1008310611f7a576305f5e1008381611f7057611f6f612cdc565b5b0492506008810190505b6127108310611f9f576127108381611f9557611f94612cdc565b5b0492506004810190505b60648310611fc25760648381611fb857611fb7612cdc565b5b0492506002810190505b600a8310611fd1576001810190505b80915050919050565b60008073ffffffffffffffffffffffffffffffffffffffff168373ffffffffffffffffffffffffffffffffffffffff161415801561209257508273ffffffffffffffffffffffffffffffffffffffff168473ffffffffffffffffffffffffffffffffffffffff1614806120535750612052848461095f565b5b8061209157508273ffffffffffffffffffffffffffffffffffffffff1661207983610b7b565b73ffffffffffffffffffffffffffffffffffffffff16145b5b90509392505050565b6000604051905090565b600080fd5b600080fd5b60007fffffffff0000000000000000000000000000000000000000000000000000000082169050919050565b6120e4816120af565b81146120ef57600080fd5b50565b600081359050612101816120db565b92915050565b60006020828403121561211d5761211c6120a5565b5b600061212b848285016120f2565b91505092915050565b60008115159050919050565b61214981612134565b82525050565b60006020820190506121646000830184612140565b92915050565b600081519050919050565b600082825260208201905092915050565b60005b838110156121a4578082015181840152602081019050612189565b60008484015250505050565b6000601f19601f8301169050919050565b60006121cc8261216a565b6121d68185612175565b93506121e6818560208601612186565b6121ef816121b0565b840191505092915050565b6000602082019050818103600083015261221481846121c1565b905092915050565b6000819050919050565b61222f8161221c565b811461223a57600080fd5b50565b60008135905061224c81612226565b92915050565b600060208284031215612268576122676120a5565b5b60006122768482850161223d565b91505092915050565b600073ffffffffffffffffffffffffffffffffffffffff82169050919050565b60006122aa8261227f565b9050919050565b6122ba8161229f565b82525050565b60006020820190506122d560008301846122b1565b92915050565b6122e48161229f565b81146122ef57600080fd5b50565b600081359050612301816122db565b92915050565b6000806040838503121561231e5761231d6120a5565b5b600061232c858286016122f2565b925050602061233d8582860161223d565b9150509250929050565b6123508161221c565b82525050565b600060208201905061236b6000830184612347565b92915050565b60008060006060848603121561238a576123896120a5565b5b6000612398868287016122f2565b93505060206123a9868287016122f2565b92505060406123ba8682870161223d565b9150509250925092565b6000602082840312156123da576123d96120a5565b5b60006123e8848285016122f2565b91505092915050565b6123fa81612134565b811461240557600080fd5b50565b600081359050612417816123f1565b92915050565b60008060408385031215612434576124336120a5565b5b6000612442858286016122f2565b925050602061245385828601612408565b9150509250929050565b600080fd5b600080fd5b7f4e487b7100000000000000000000000000000000000000000000000000000000600052604160045260246000fd5b61249f826121b0565b810181811067ffffffffffffffff821117156124be576124bd612467565b5b80604052505050565b60006124d161209b565b90506124dd8282612496565b919050565b600067ffffffffffffffff8211156124fd576124fc612467565b5b612506826121b0565b9050602081019050919050565b82818337600083830152505050565b6000612535612530846124e2565b6124c7565b90508281526020810184848401111561255157612550612462565b5b61255c848285612513565b509392505050565b600082601f8301126125795761257861245d565b5b8135612589848260208601612522565b91505092915050565b600080600080608085870312156125ac576125ab6120a5565b5b60006125ba878288016122f2565b94505060206125cb878288016122f2565b93505060406125dc8782880161223d565b925050606085013567ffffffffffffffff8111156125fd576125fc6120aa565b5b61260987828801612564565b91505092959194509250565b600067ffffffffffffffff8211156126305761262f612467565b5b612639826121b0565b9050602081019050919050565b600061265961265484612615565b6124c7565b90508281526020810184848401111561267557612674612462565b5b612680848285612513565b509392505050565b600082601f83011261269d5761269c61245d565b5b81356126ad848260208601612646565b91505092915050565b600080604083850312156126cd576126cc6120a5565b5b60006126db858286016122f2565b925050602083013567ffffffffffffffff8111156126fc576126fb6120aa565b5b61270885828601612688565b9150509250929050565b60008060408385031215612729576127286120a5565b5b6000612737858286016122f2565b9250506020612748858286016122f2565b9150509250929050565b7f4e487b7100000000000000000000000000000000000000000000000000000000600052602260045260246000fd5b6000600282049050600182168061279957607f821691505b6020821081036127ac576127ab612752565b5b50919050565b60006060820190506127c760008301866122b1565b6127d46020830185612347565b6127e160408301846122b1565b949350505050565b60006040820190506127fe60008301856122b1565b61280b6020830184612347565b9392505050565b7f4e487b7100000000000000000000000000000000000000000000000000000000600052603260045260246000fd5b7f4e487b7100000000000000000000000000000000000000000000000000000000600052601160045260246000fd5b600061287b8261221c565b91507fffffffffffffffffffffffffffffffffffffffffffffffffffffffffffffffff82036128ad576128ac612841565b5b600182019050919050565b600081519050919050565b600082825260208201905092915050565b60006128df826128b8565b6128e981856128c3565b93506128f9818560208601612186565b612902816121b0565b840191505092915050565b600060808201905061292260008301876122b1565b61292f60208301866122b1565b61293c6040830185612347565b818103606083015261294e81846128d4565b905095945050505050565b600081519050612968816120db565b92915050565b600060208284031215612984576129836120a5565b5b600061299284828501612959565b91505092915050565b60008190508160005260206000209050919050565b60006020601f8301049050919050565b600082821b905092915050565b6000600883026129fd7fffffffffffffffffffffffffffffffffffffffffffffffffffffffffffffffff826129c0565b612a0786836129c0565b95508019841693508086168417925050509392505050565b6000819050919050565b6000612a44612a3f612a3a8461221c565b612a1f565b61221c565b9050919050565b6000819050919050565b612a5e83612a29565b612a72612a6a82612a4b565b8484546129cd565b825550505050565b600090565b612a87612a7a565b612a92818484612a55565b505050565b5b81811015612ab657612aab600082612a7f565b600181019050612a98565b5050565b601f821115612afb57612acc8161299b565b612ad5846129b0565b81016020851015612ae4578190505b612af8612af0856129b0565b830182612a97565b50505b505050565b600082821c905092915050565b6000612b1e60001984600802612b00565b1980831691505092915050565b6000612b378383612b0d565b9150826002028217905092915050565b612b508261216a565b67ffffffffffffffff811115612b6957612b68612467565b5b612b738254612781565b612b7e828285612aba565b600060209050601f831160018114612bb15760008415612b9f578287015190505b612ba98582612b2b565b865550612c11565b601f198416612bbf8661299b565b60005b82811015612be757848901518255600182019150602085019450602081019050612bc2565b86831015612c045784890151612c00601f891682612b0d565b8355505b6001600288020188555050505b505050505050565b600081905092915050565b6000612c2f8261216a565b612c398185612c19565b9350612c49818560208601612186565b80840191505092915050565b6000612c618285612c24565b9150612c6d8284612c24565b91508190509392505050565b6000612c848261221c565b9150612c8f8361221c565b9250828203905081811115612ca757612ca6612841565b5b92915050565b7f4e487b7100000000000000000000000000000000000000000000000000000000600052603160045260246000fd5b7f4e487b7100000000000000000000000000000000000000000000000000000000600052601260045260246000fdfea264697066735822122000551985d672446ca65153d0b0c63c47803b2f3a81ff66cfdc4100a17830d90464736f6c634300081c0033",
  "linkReferences": {},
  "deployedLinkReferences": {}
}